{
  "contractName": "SimpleEnergyMarket",
  "abi": [
    {
      "inputs": [],
      "stateMutability": "nonpayable",
      "type": "constructor"
    },
    {
      "inputs": [
        {
          "internalType": "address",
          "name": "",
          "type": "address"
        }
      ],
      "name": "energyBalance",
      "outputs": [
        {
          "internalType": "uint256",
          "name": "",
          "type": "uint256"
        }
      ],
      "stateMutability": "view",
      "type": "function"
    },
    {
      "inputs": [],
      "name": "owner",
      "outputs": [
        {
          "internalType": "address",
          "name": "",
          "type": "address"
        }
      ],
      "stateMutability": "view",
      "type": "function"
    },
    {
      "inputs": [],
      "name": "buyEnergy",
      "outputs": [],
      "stateMutability": "payable",
      "type": "function"
    },
    {
      "inputs": [
        {
          "internalType": "uint256",
          "name": "amount",
          "type": "uint256"
        }
      ],
      "name": "sellEnergy",
      "outputs": [],
      "stateMutability": "nonpayable",
      "type": "function"
    },
    {
      "inputs": [
        {
          "internalType": "address",
          "name": "account",
          "type": "address"
        }
      ],
      "name": "getEnergyBalance",
      "outputs": [
        {
          "internalType": "uint256",
          "name": "",
          "type": "uint256"
        }
      ],
      "stateMutability": "view",
      "type": "function"
    }
  ],
  "bytecode": "0x608060405234801561001057600080fd5b50336000806101000a81548173ffffffffffffffffffffffffffffffffffffffff021916908373ffffffffffffffffffffffffffffffffffffffff160217905550610689806100606000396000f3fe60806040526004361061004a5760003560e01c806339e765a11461004f5780634326ee361461005957806346352b58146100825780638da5cb5b146100bf578063ed7653e7146100ea575b600080fd5b610057610127565b005b34801561006557600080fd5b50610080600480360381019061007b91906103bc565b6101c2565b005b34801561008e57600080fd5b506100a960048036038101906100a49190610393565b6102e4565b6040516100b69190610504565b60405180910390f35b3480156100cb57600080fd5b506100d461032d565b6040516100e191906104a9565b60405180910390f35b3480156100f657600080fd5b50610111600480360381019061010c9190610393565b610351565b60405161011e9190610504565b60405180910390f35b6000341161016a576040517f08c379a0000000000000000000000000000000000000000000000000000000008152600401610161906104c4565b60405180910390fd5b34600160003373ffffffffffffffffffffffffffffffffffffffff1673ffffffffffffffffffffffffffffffffffffffff16815260200190815260200160002060008282546101b99190610530565b92505081905550565b80600160003373ffffffffffffffffffffffffffffffffffffffff1673ffffffffffffffffffffffffffffffffffffffff168152602001908152602001600020541015610244576040517f08c379a000000000000000000000000000000000000000000000000000000000815260040161023b906104e4565b60405180910390fd5b3373ffffffffffffffffffffffffffffffffffffffff166108fc829081150290604051600060405180830381858888f1935050505015801561028a573d6000803e3d6000fd5b5080600160003373ffffffffffffffffffffffffffffffffffffffff1673ffffffffffffffffffffffffffffffffffffffff16815260200190815260200160002060008282546102da9190610586565b9250508190555050565b6000600160008373ffffffffffffffffffffffffffffffffffffffff1673ffffffffffffffffffffffffffffffffffffffff168152602001908152602001600020549050919050565b60008054906101000a900473ffffffffffffffffffffffffffffffffffffffff1681565b60016020528060005260406000206000915090505481565b60008135905061037881610625565b92915050565b60008135905061038d8161063c565b92915050565b6000602082840312156103a557600080fd5b60006103b384828501610369565b91505092915050565b6000602082840312156103ce57600080fd5b60006103dc8482850161037e565b91505092915050565b6103ee816105ba565b82525050565b6000610401602a8361051f565b91507f456e766f796572206465206c2745544820706f7572206163686574657220646560008301527f206c27656e6572676965000000000000000000000000000000000000000000006020830152604082019050919050565b600061046760118361051f565b91507f536f6c646520696e737566666973616e740000000000000000000000000000006000830152602082019050919050565b6104a3816105ec565b82525050565b60006020820190506104be60008301846103e5565b92915050565b600060208201905081810360008301526104dd816103f4565b9050919050565b600060208201905081810360008301526104fd8161045a565b9050919050565b6000602082019050610519600083018461049a565b92915050565b600082825260208201905092915050565b600061053b826105ec565b9150610546836105ec565b9250827fffffffffffffffffffffffffffffffffffffffffffffffffffffffffffffffff0382111561057b5761057a6105f6565b5b828201905092915050565b6000610591826105ec565b915061059c836105ec565b9250828210156105af576105ae6105f6565b5b828203905092915050565b60006105c5826105cc565b9050919050565b600073ffffffffffffffffffffffffffffffffffffffff82169050919050565b6000819050919050565b7f4e487b7100000000000000000000000000000000000000000000000000000000600052601160045260246000fd5b61062e816105ba565b811461063957600080fd5b50565b610645816105ec565b811461065057600080fd5b5056fea2646970667358221220e453620008fdaac9b319b423baf930d838fdd63f49911f3c4897017f0c6688d564736f6c63430008000033",
  "immutableReferences": {},
  "source": "// src/contracts/SimpleEnergyMarket.sol\r\npragma solidity ^0.8.0;\r\n\r\ncontract SimpleEnergyMarket {\r\n    address public owner;\r\n    mapping(address => uint256) public energyBalance;\r\n\r\n    constructor() {\r\n        owner = msg.sender;\r\n    }\r\n\r\n    function buyEnergy() public payable {\r\n        require(msg.value > 0, \"Envoyer de l'ETH pour acheter de l'energie\");\r\n        energyBalance[msg.sender] += msg.value;\r\n    }\r\n\r\n    function sellEnergy(uint256 amount) public {\r\n        require(energyBalance[msg.sender] >= amount, \"Solde insuffisant\");\r\n        payable(msg.sender).transfer(amount);\r\n        energyBalance[msg.sender] -= amount;\r\n    }\r\n\r\n    function getEnergyBalance(address account) public view returns (uint256) {\r\n        return energyBalance[account];\r\n    }\r\n}\r\n",
  "sourcePath": "C:\\Blockchain_project\\my-blockchain-project\\contracts\\SimpleEnergyMarket.sol",
  "compiler": {
    "name": "solc",
    "version": "0.8.0+commit.c7dfd78e.Emscripten.clang"
  },
  "schemaVersion": "3.4.16",
  "updatedAt": "2024-11-19T09:43:14.307Z",
  "devdoc": {
    "kind": "dev",
    "methods": {},
    "version": 1
  },
  "userdoc": {
    "kind": "user",
    "methods": {},
    "version": 1
  }
}