{
  "contractName": "SimpleEnergyMarket",
  "abi": [
    {
      "inputs": [],
      "stateMutability": "nonpayable",
      "type": "constructor"
    },
    {
      "inputs": [
        {
          "internalType": "address",
          "name": "",
          "type": "address"
        }
      ],
      "name": "energyBalance",
      "outputs": [
        {
          "internalType": "uint256",
          "name": "",
          "type": "uint256"
        }
      ],
      "stateMutability": "view",
      "type": "function",
      "constant": true
    },
    {
      "inputs": [],
      "name": "owner",
      "outputs": [
        {
          "internalType": "address",
          "name": "",
          "type": "address"
        }
      ],
      "stateMutability": "view",
      "type": "function",
      "constant": true
    },
    {
      "inputs": [
        {
          "internalType": "address",
          "name": "",
          "type": "address"
        }
      ],
      "name": "roles",
      "outputs": [
        {
          "internalType": "string",
          "name": "",
          "type": "string"
        }
      ],
      "stateMutability": "view",
      "type": "function",
      "constant": true
    },
    {
      "inputs": [
        {
          "internalType": "string",
          "name": "role",
          "type": "string"
        }
      ],
      "name": "setRole",
      "outputs": [],
      "stateMutability": "nonpayable",
      "type": "function"
    },
    {
      "inputs": [
        {
          "internalType": "address",
          "name": "account",
          "type": "address"
        }
      ],
      "name": "getRole",
      "outputs": [
        {
          "internalType": "string",
          "name": "",
          "type": "string"
        }
      ],
      "stateMutability": "view",
      "type": "function",
      "constant": true
    },
    {
      "inputs": [],
      "name": "buyEnergy",
      "outputs": [],
      "stateMutability": "payable",
      "type": "function",
      "payable": true
    },
    {
      "inputs": [
        {
          "internalType": "uint256",
          "name": "amount",
          "type": "uint256"
        }
      ],
      "name": "sellEnergy",
      "outputs": [],
      "stateMutability": "nonpayable",
      "type": "function"
    },
    {
      "inputs": [
        {
          "internalType": "address",
          "name": "account",
          "type": "address"
        }
      ],
      "name": "getEnergyBalance",
      "outputs": [
        {
          "internalType": "uint256",
          "name": "",
          "type": "uint256"
        }
      ],
      "stateMutability": "view",
      "type": "function",
      "constant": true
    }
  ],
  "bytecode": "0x608060405234801561001057600080fd5b50336000806101000a81548173ffffffffffffffffffffffffffffffffffffffff021916908373ffffffffffffffffffffffffffffffffffffffff1602179055506111d5806100606000396000f3fe60806040526004361061007b5760003560e01c80638da5cb5b1161004e5780638da5cb5b1461012d5780638e0cfbc2146101585780639937464214610181578063ed7653e7146101be5761007b565b806339e765a1146100805780634326ee361461008a57806344276733146100b357806346352b58146100f0575b600080fd5b6100886101fb565b005b34801561009657600080fd5b506100b160048036038101906100ac9190610af4565b610397565b005b3480156100bf57600080fd5b506100da60048036038101906100d59190610a8a565b6105ba565b6040516100e79190610e1f565b60405180910390f35b3480156100fc57600080fd5b5061011760048036038101906101129190610a8a565b61068b565b6040516101249190610ee1565b60405180910390f35b34801561013957600080fd5b506101426106d4565b60405161014f9190610e04565b60405180910390f35b34801561016457600080fd5b5061017f600480360381019061017a9190610ab3565b6106f8565b005b34801561018d57600080fd5b506101a860048036038101906101a39190610a8a565b61089d565b6040516101b59190610e1f565b60405180910390f35b3480156101ca57600080fd5b506101e560048036038101906101e09190610a8a565b61093d565b6040516101f29190610ee1565b60405180910390f35b6040518060400160405280600881526020017f41636865746575720000000000000000000000000000000000000000000000008152506040516020016102419190610dd6565b60405160208183030381529060405280519060200120600260003373ffffffffffffffffffffffffffffffffffffffff1673ffffffffffffffffffffffffffffffffffffffff1681526020019081526020016000206040516020016102a69190610ded565b60405160208183030381529060405280519060200120146102fc576040517f08c379a00000000000000000000000000000000000000000000000000000000081526004016102f390610e41565b60405180910390fd5b6000341161033f576040517f08c379a000000000000000000000000000000000000000000000000000000000815260040161033690610ea1565b60405180910390fd5b34600160003373ffffffffffffffffffffffffffffffffffffffff1673ffffffffffffffffffffffffffffffffffffffff168152602001908152602001600020600082825461038e9190610f99565b92505081905550565b6040518060400160405280600781526020017f56656e64657572000000000000000000000000000000000000000000000000008152506040516020016103dd9190610dd6565b60405160208183030381529060405280519060200120600260003373ffffffffffffffffffffffffffffffffffffffff1673ffffffffffffffffffffffffffffffffffffffff1681526020019081526020016000206040516020016104429190610ded565b6040516020818303038152906040528051906020012014610498576040517f08c379a000000000000000000000000000000000000000000000000000000000815260040161048f90610ec1565b60405180910390fd5b80600160003373ffffffffffffffffffffffffffffffffffffffff1673ffffffffffffffffffffffffffffffffffffffff16815260200190815260200160002054101561051a576040517f08c379a000000000000000000000000000000000000000000000000000000000815260040161051190610e81565b60405180910390fd5b3373ffffffffffffffffffffffffffffffffffffffff166108fc829081150290604051600060405180830381858888f19350505050158015610560573d6000803e3d6000fd5b5080600160003373ffffffffffffffffffffffffffffffffffffffff1673ffffffffffffffffffffffffffffffffffffffff16815260200190815260200160002060008282546105b09190610fef565b9250508190555050565b6060600260008373ffffffffffffffffffffffffffffffffffffffff1673ffffffffffffffffffffffffffffffffffffffff1681526020019081526020016000208054610606906110a1565b80601f0160208091040260200160405190810160405280929190818152602001828054610632906110a1565b801561067f5780601f106106545761010080835404028352916020019161067f565b820191906000526020600020905b81548152906001019060200180831161066257829003601f168201915b50505050509050919050565b6000600160008373ffffffffffffffffffffffffffffffffffffffff1673ffffffffffffffffffffffffffffffffffffffff168152602001908152602001600020549050919050565b60008054906101000a900473ffffffffffffffffffffffffffffffffffffffff1681565b6040518060400160405280600881526020017f416368657465757200000000000000000000000000000000000000000000000081525060405160200161073e9190610dd6565b60405160208183030381529060405280519060200120816040516020016107659190610dd6565b60405160208183030381529060405280519060200120148061080757506040518060400160405280600781526020017f56656e64657572000000000000000000000000000000000000000000000000008152506040516020016107c89190610dd6565b60405160208183030381529060405280519060200120816040516020016107ef9190610dd6565b60405160208183030381529060405280519060200120145b610846576040517f08c379a000000000000000000000000000000000000000000000000000000000815260040161083d90610e61565b60405180910390fd5b80600260003373ffffffffffffffffffffffffffffffffffffffff1673ffffffffffffffffffffffffffffffffffffffff1681526020019081526020016000209080519060200190610899929190610955565b5050565b600260205280600052604060002060009150905080546108bc906110a1565b80601f01602080910402602001604051908101604052809291908181526020018280546108e8906110a1565b80156109355780601f1061090a57610100808354040283529160200191610935565b820191906000526020600020905b81548152906001019060200180831161091857829003601f168201915b505050505081565b60016020528060005260406000206000915090505481565b828054610961906110a1565b90600052602060002090601f01602090048101928261098357600085556109ca565b82601f1061099c57805160ff19168380011785556109ca565b828001600101855582156109ca579182015b828111156109c95782518255916020019190600101906109ae565b5b5090506109d791906109db565b5090565b5b808211156109f45760008160009055506001016109dc565b5090565b6000610a0b610a0684610f2d565b610efc565b905082815260208101848484011115610a2357600080fd5b610a2e84828561105f565b509392505050565b600081359050610a4581611171565b92915050565b600082601f830112610a5c57600080fd5b8135610a6c8482602086016109f8565b91505092915050565b600081359050610a8481611188565b92915050565b600060208284031215610a9c57600080fd5b6000610aaa84828501610a36565b91505092915050565b600060208284031215610ac557600080fd5b600082013567ffffffffffffffff811115610adf57600080fd5b610aeb84828501610a4b565b91505092915050565b600060208284031215610b0657600080fd5b6000610b1484828501610a75565b91505092915050565b610b2681611023565b82525050565b6000610b3782610f72565b610b418185610f7d565b9350610b5181856020860161106e565b610b5a81611160565b840191505092915050565b6000610b7082610f72565b610b7a8185610f8e565b9350610b8a81856020860161106e565b80840191505092915050565b60008154610ba3816110a1565b610bad8186610f8e565b94506001821660008114610bc85760018114610bd957610c0c565b60ff19831686528186019350610c0c565b610be285610f5d565b60005b83811015610c0457815481890152600182019150602081019050610be5565b838801955050505b50505092915050565b6000610c22603483610f7d565b91507f566f757320646576657a206574726520756e20416368657465757220706f757260008301527f2061636865746572206465206c646e65726769650000000000000000000000006020830152604082019050919050565b6000610c88600d83610f7d565b91507f526f6c6520696e76616c696465000000000000000000000000000000000000006000830152602082019050919050565b6000610cc8601183610f7d565b91507f536f6c646520696e737566666973616e740000000000000000000000000000006000830152602082019050919050565b6000610d08602983610f7d565b91507f456e766f79657a206465206c2745544820706f7572206163686574657220646560008301527f206c656e657267696500000000000000000000000000000000000000000000006020830152604082019050919050565b6000610d6e603283610f7d565b91507f566f757320646576657a206574726520756e2056656e6465757220706f75722060008301527f76656e647265206465206c656e657267696500000000000000000000000000006020830152604082019050919050565b610dd081611055565b82525050565b6000610de28284610b65565b915081905092915050565b6000610df98284610b96565b915081905092915050565b6000602082019050610e196000830184610b1d565b92915050565b60006020820190508181036000830152610e398184610b2c565b905092915050565b60006020820190508181036000830152610e5a81610c15565b9050919050565b60006020820190508181036000830152610e7a81610c7b565b9050919050565b60006020820190508181036000830152610e9a81610cbb565b9050919050565b60006020820190508181036000830152610eba81610cfb565b9050919050565b60006020820190508181036000830152610eda81610d61565b9050919050565b6000602082019050610ef66000830184610dc7565b92915050565b6000604051905081810181811067ffffffffffffffff82111715610f2357610f22611131565b5b8060405250919050565b600067ffffffffffffffff821115610f4857610f47611131565b5b601f19601f8301169050602081019050919050565b60008190508160005260206000209050919050565b600081519050919050565b600082825260208201905092915050565b600081905092915050565b6000610fa482611055565b9150610faf83611055565b9250827fffffffffffffffffffffffffffffffffffffffffffffffffffffffffffffffff03821115610fe457610fe36110d3565b5b828201905092915050565b6000610ffa82611055565b915061100583611055565b925082821015611018576110176110d3565b5b828203905092915050565b600061102e82611035565b9050919050565b600073ffffffffffffffffffffffffffffffffffffffff82169050919050565b6000819050919050565b82818337600083830152505050565b60005b8381101561108c578082015181840152602081019050611071565b8381111561109b576000848401525b50505050565b600060028204905060018216806110b957607f821691505b602082108114156110cd576110cc611102565b5b50919050565b7f4e487b7100000000000000000000000000000000000000000000000000000000600052601160045260246000fd5b7f4e487b7100000000000000000000000000000000000000000000000000000000600052602260045260246000fd5b7f4e487b7100000000000000000000000000000000000000000000000000000000600052604160045260246000fd5b6000601f19601f8301169050919050565b61117a81611023565b811461118557600080fd5b50565b61119181611055565b811461119c57600080fd5b5056fea2646970667358221220ae5f5822ca265f793cddb30f7db4e4478a7eb243ba3e835e3ee1f9a8900930bb64736f6c63430008000033",
  "immutableReferences": {},
  "source": "// // src/contracts/SimpleEnergyMarket.sol\r\n// pragma solidity ^0.8.0;\r\n\r\n// contract SimpleEnergyMarket {\r\n//     address public owner;\r\n//     mapping(address => uint256) public energyBalance;\r\n\r\n//     constructor() {\r\n//         owner = msg.sender;\r\n//     }\r\n\r\n//     function buyEnergy() public payable {\r\n//         require(msg.value > 0, \"Envoyer de l'ETH pour acheter de l'energie\");\r\n//         energyBalance[msg.sender] += msg.value;\r\n//     }\r\n\r\n//     function sellEnergy(uint256 amount) public {\r\n//         require(energyBalance[msg.sender] >= amount, \"Solde insuffisant\");\r\n//         payable(msg.sender).transfer(amount);\r\n//         energyBalance[msg.sender] -= amount;\r\n//     }\r\n\r\n//     function getEnergyBalance(address account) public view returns (uint256) {\r\n//         return energyBalance[account];\r\n//     }\r\n// }\r\n\r\npragma solidity ^0.8.0;\r\n\r\ncontract SimpleEnergyMarket {\r\n    address public owner;\r\n    mapping(address => uint256) public energyBalance;\r\n    mapping(address => string) public roles; // Associe des rles aux adresses\r\n\r\n    // Constantes pour les rles\r\n    string constant BUYER = \"Acheteur\";\r\n    string constant SELLER = \"Vendeur\";\r\n\r\n    constructor() {\r\n        owner = msg.sender;\r\n    }\r\n\r\n    // Fonction pour dfinir le rle de l'utilisateur\r\n    function setRole(string memory role) public {\r\n        require(\r\n            keccak256(abi.encodePacked(role)) == keccak256(abi.encodePacked(BUYER)) ||\r\n            keccak256(abi.encodePacked(role)) == keccak256(abi.encodePacked(SELLER)),\r\n            \"Role invalide\"\r\n        );\r\n        roles[msg.sender] = role;\r\n    }\r\n\r\n    // Fonction pour rcuprer le rle d'un utilisateur\r\n    function getRole(address account) public view returns (string memory) {\r\n        return roles[account];\r\n    }\r\n\r\n    // Fonction pour acheter de l'nergie (uniquement pour les acheteurs)\r\n    function buyEnergy() public payable {\r\n        require(\r\n            keccak256(abi.encodePacked(roles[msg.sender])) == keccak256(abi.encodePacked(BUYER)),\r\n            \"Vous devez etre un Acheteur pour acheter de ldnergie\"\r\n        );\r\n        require(msg.value > 0, \"Envoyez de l'ETH pour acheter de lenergie\");\r\n        energyBalance[msg.sender] += msg.value;\r\n    }\r\n\r\n    // Fonction pour vendre de l'nergie (uniquement pour les vendeurs)\r\n    function sellEnergy(uint256 amount) public {\r\n        require(\r\n            keccak256(abi.encodePacked(roles[msg.sender])) == keccak256(abi.encodePacked(SELLER)),\r\n            \"Vous devez etre un Vendeur pour vendre de lenergie\"\r\n        );\r\n        require(energyBalance[msg.sender] >= amount, \"Solde insuffisant\");\r\n        payable(msg.sender).transfer(amount);\r\n        energyBalance[msg.sender] -= amount;\r\n    }\r\n\r\n    // Fonction pour rcuprer le solde d'nergie d'un utilisateur\r\n    function getEnergyBalance(address account) public view returns (uint256) {\r\n        return energyBalance[account];\r\n    }\r\n}\r\n",
  "sourcePath": "C:\\Blockchain_project\\my-blockchain-project\\contracts\\SimpleEnergyMarket.sol",
  "compiler": {
    "name": "solc",
    "version": "0.8.0+commit.c7dfd78e.Emscripten.clang"
  },
  "schemaVersion": "3.4.16",
  "updatedAt": "2024-11-25T18:46:21.308Z",
  "networkType": "ethereum",
  "devdoc": {
    "kind": "dev",
    "methods": {},
    "version": 1
  },
  "userdoc": {
    "kind": "user",
    "methods": {},
    "version": 1
  }
}